{
	"data": {
		"bytecode": {
			"linkReferences": {},
			"object": "6080604052620f42405f556103e86001555f600255348015601e575f80fd5b506101008061002c5f395ff3fe6080604052348015600e575f80fd5b5060043610603a575f3560e01c80631f41ae8414603e578063465c2401146058578063cffcb88a146072575b5f80fd5b6044608c565b604051604f919060b3565b60405180910390f35b605e6092565b6040516069919060b3565b60405180910390f35b60786098565b6040516083919060b3565b60405180910390f35b60015481565b60025481565b5f5481565b5f819050919050565b60ad81609d565b82525050565b5f60208201905060c45f83018460a6565b9291505056fea26469706673582212205cbaf6069708ba3fd04f664070ead575b2a9d7c5957cdf2f774ab62633fa5cad64736f6c634300081a0033",
			"opcodes": "PUSH1 0x80 PUSH1 0x40 MSTORE PUSH3 0xF4240 PUSH0 SSTORE PUSH2 0x3E8 PUSH1 0x1 SSTORE PUSH0 PUSH1 0x2 SSTORE CALLVALUE DUP1 ISZERO PUSH1 0x1E JUMPI PUSH0 DUP1 REVERT JUMPDEST POP PUSH2 0x100 DUP1 PUSH2 0x2C PUSH0 CODECOPY PUSH0 RETURN INVALID PUSH1 0x80 PUSH1 0x40 MSTORE CALLVALUE DUP1 ISZERO PUSH1 0xE JUMPI PUSH0 DUP1 REVERT JUMPDEST POP PUSH1 0x4 CALLDATASIZE LT PUSH1 0x3A JUMPI PUSH0 CALLDATALOAD PUSH1 0xE0 SHR DUP1 PUSH4 0x1F41AE84 EQ PUSH1 0x3E JUMPI DUP1 PUSH4 0x465C2401 EQ PUSH1 0x58 JUMPI DUP1 PUSH4 0xCFFCB88A EQ PUSH1 0x72 JUMPI JUMPDEST PUSH0 DUP1 REVERT JUMPDEST PUSH1 0x44 PUSH1 0x8C JUMP JUMPDEST PUSH1 0x40 MLOAD PUSH1 0x4F SWAP2 SWAP1 PUSH1 0xB3 JUMP JUMPDEST PUSH1 0x40 MLOAD DUP1 SWAP2 SUB SWAP1 RETURN JUMPDEST PUSH1 0x5E PUSH1 0x92 JUMP JUMPDEST PUSH1 0x40 MLOAD PUSH1 0x69 SWAP2 SWAP1 PUSH1 0xB3 JUMP JUMPDEST PUSH1 0x40 MLOAD DUP1 SWAP2 SUB SWAP1 RETURN JUMPDEST PUSH1 0x78 PUSH1 0x98 JUMP JUMPDEST PUSH1 0x40 MLOAD PUSH1 0x83 SWAP2 SWAP1 PUSH1 0xB3 JUMP JUMPDEST PUSH1 0x40 MLOAD DUP1 SWAP2 SUB SWAP1 RETURN JUMPDEST PUSH1 0x1 SLOAD DUP2 JUMP JUMPDEST PUSH1 0x2 SLOAD DUP2 JUMP JUMPDEST PUSH0 SLOAD DUP2 JUMP JUMPDEST PUSH0 DUP2 SWAP1 POP SWAP2 SWAP1 POP JUMP JUMPDEST PUSH1 0xAD DUP2 PUSH1 0x9D JUMP JUMPDEST DUP3 MSTORE POP POP JUMP JUMPDEST PUSH0 PUSH1 0x20 DUP3 ADD SWAP1 POP PUSH1 0xC4 PUSH0 DUP4 ADD DUP5 PUSH1 0xA6 JUMP JUMPDEST SWAP3 SWAP2 POP POP JUMP INVALID LOG2 PUSH5 0x6970667358 0x22 SLT KECCAK256 TLOAD 0xBA 0xF6 MOD SWAP8 ADDMOD 0xBA EXTCODEHASH 0xD0 0x4F PUSH7 0x4070EAD575B2A9 0xD7 0xC5 SWAP6 PUSH29 0xDF2F774AB62633FA5CAD64736F6C634300081A00330000000000000000 "
		},
		"gasEstimates": {
			"creation": {
				"codeDepositCost": "51200",
				"executionCost": "49313",
				"totalCost": "100513"
			},
			"external": {
				"max_murcoins()": "2446",
				"total_murcoins_bought()": "2425",
				"usd_to_murcoins()": "2403"
			}
		},
		"methodIdentifiers": {
			"max_murcoins()": "cffcb88a",
			"total_murcoins_bought()": "465c2401",
			"usd_to_murcoins()": "1f41ae84"
		}
	},
	"abi": [
		{
			"inputs": [],
			"name": "max_murcoins",
			"outputs": [
				{
					"internalType": "uint256",
					"name": "",
					"type": "uint256"
				}
			],
			"stateMutability": "view",
			"type": "function"
		},
		{
			"inputs": [],
			"name": "total_murcoins_bought",
			"outputs": [
				{
					"internalType": "uint256",
					"name": "",
					"type": "uint256"
				}
			],
			"stateMutability": "view",
			"type": "function"
		},
		{
			"inputs": [],
			"name": "usd_to_murcoins",
			"outputs": [
				{
					"internalType": "uint256",
					"name": "",
					"type": "uint256"
				}
			],
			"stateMutability": "view",
			"type": "function"
		}
	]
}